{
  "contractName": "Faucet",
  "abi": [
    {
      "inputs": [
        {
          "internalType": "address",
          "name": "",
          "type": "address"
        }
      ],
      "name": "funders",
      "outputs": [
        {
          "internalType": "bool",
          "name": "",
          "type": "bool"
        }
      ],
      "stateMutability": "view",
      "type": "function",
      "constant": true
    },
    {
      "inputs": [
        {
          "internalType": "uint256",
          "name": "",
          "type": "uint256"
        }
      ],
      "name": "lutFunders",
      "outputs": [
        {
          "internalType": "address",
          "name": "",
          "type": "address"
        }
      ],
      "stateMutability": "view",
      "type": "function",
      "constant": true
    },
    {
      "inputs": [],
      "name": "numOfFunders",
      "outputs": [
        {
          "internalType": "uint256",
          "name": "",
          "type": "uint256"
        }
      ],
      "stateMutability": "view",
      "type": "function",
      "constant": true
    },
    {
      "inputs": [],
      "name": "owner",
      "outputs": [
        {
          "internalType": "address",
          "name": "",
          "type": "address"
        }
      ],
      "stateMutability": "view",
      "type": "function",
      "constant": true
    },
    {
      "stateMutability": "payable",
      "type": "receive",
      "payable": true
    },
    {
      "inputs": [],
      "name": "emitLog",
      "outputs": [
        {
          "internalType": "bytes32",
          "name": "",
          "type": "bytes32"
        }
      ],
      "stateMutability": "pure",
      "type": "function",
      "constant": true
    },
    {
      "inputs": [],
      "name": "addFunds",
      "outputs": [],
      "stateMutability": "payable",
      "type": "function",
      "payable": true
    },
    {
      "inputs": [
        {
          "internalType": "uint256",
          "name": "withdrawAmount",
          "type": "uint256"
        }
      ],
      "name": "withdrawFunds",
      "outputs": [],
      "stateMutability": "nonpayable",
      "type": "function"
    },
    {
      "inputs": [],
      "name": "getAllFunders",
      "outputs": [
        {
          "internalType": "address[]",
          "name": "",
          "type": "address[]"
        }
      ],
      "stateMutability": "view",
      "type": "function",
      "constant": true
    },
    {
      "inputs": [
        {
          "internalType": "uint8",
          "name": "index",
          "type": "uint8"
        }
      ],
      "name": "getFunderAtIndex",
      "outputs": [
        {
          "internalType": "address",
          "name": "",
          "type": "address"
        }
      ],
      "stateMutability": "view",
      "type": "function",
      "constant": true
    }
  ],
  "bytecode": "0x608060405234801561001057600080fd5b50336000806101000a81548173ffffffffffffffffffffffffffffffffffffffff021916908373ffffffffffffffffffffffffffffffffffffffff160217905550610a67806100606000396000f3fe60806040526004361061008a5760003560e01c80636fbbb55d116100595780636fbbb55d146101765780638da5cb5b146101a1578063a26759cb146101cc578063af7f2c9b146101d6578063f42c13bf1461020157610091565b8063031b3677146100965780630a93cf33146100d3578063155dd5ee146101105780631f8947ea1461013957610091565b3661009157005b600080fd5b3480156100a257600080fd5b506100bd60048036038101906100b89190610625565b61022c565b6040516100ca919061066d565b60405180910390f35b3480156100df57600080fd5b506100fa60048036038101906100f591906106c1565b61024c565b60405161010791906106fd565b60405180910390f35b34801561011c57600080fd5b506101376004803603810190610132919061074e565b61028c565b005b34801561014557600080fd5b50610160600480360381019061015b919061074e565b610323565b60405161016d91906106fd565b60405180910390f35b34801561018257600080fd5b5061018b610356565b6040516101989190610839565b60405180910390f35b3480156101ad57600080fd5b506101b6610450565b6040516101c391906106fd565b60405180910390f35b6101d4610474565b005b3480156101e257600080fd5b506101eb610594565b6040516101f8919061086a565b60405180910390f35b34801561020d57600080fd5b5061021661059a565b604051610223919061089e565b60405180910390f35b60026020528060005260406000206000915054906101000a900460ff1681565b6000600360008360ff16815260200190815260200160002060009054906101000a900473ffffffffffffffffffffffffffffffffffffffff169050919050565b8067016345785d8a00008111156102d8576040517f08c379a00000000000000000000000000000000000000000000000000000000081526004016102cf9061093c565b60405180910390fd5b3373ffffffffffffffffffffffffffffffffffffffff166108fc839081150290604051600060405180830381858888f1935050505015801561031e573d6000803e3d6000fd5b505050565b60036020528060005260406000206000915054906101000a900473ffffffffffffffffffffffffffffffffffffffff1681565b6060600060015467ffffffffffffffff8111156103765761037561095c565b5b6040519080825280602002602001820160405280156103a45781602001602082028036833780820191505090505b50905060005b600154811015610448576003600082815260200190815260200160002060009054906101000a900473ffffffffffffffffffffffffffffffffffffffff168282815181106103fb576103fa61098b565b5b602002602001019073ffffffffffffffffffffffffffffffffffffffff16908173ffffffffffffffffffffffffffffffffffffffff16815250508080610440906109e9565b9150506103aa565b508091505090565b60008054906101000a900473ffffffffffffffffffffffffffffffffffffffff1681565b6000339050600260008273ffffffffffffffffffffffffffffffffffffffff1673ffffffffffffffffffffffffffffffffffffffff16815260200190815260200160002060009054906101000a900460ff16610591576000600160008154809291906104df906109e9565b9190505590506001600260008473ffffffffffffffffffffffffffffffffffffffff1673ffffffffffffffffffffffffffffffffffffffff16815260200190815260200160002060006101000a81548160ff021916908315150217905550816003600083815260200190815260200160002060006101000a81548173ffffffffffffffffffffffffffffffffffffffff021916908373ffffffffffffffffffffffffffffffffffffffff160217905550505b50565b60015481565b60007f48656c6c6f20576f726c64000000000000000000000000000000000000000000905090565b600080fd5b600073ffffffffffffffffffffffffffffffffffffffff82169050919050565b60006105f2826105c7565b9050919050565b610602816105e7565b811461060d57600080fd5b50565b60008135905061061f816105f9565b92915050565b60006020828403121561063b5761063a6105c2565b5b600061064984828501610610565b91505092915050565b60008115159050919050565b61066781610652565b82525050565b6000602082019050610682600083018461065e565b92915050565b600060ff82169050919050565b61069e81610688565b81146106a957600080fd5b50565b6000813590506106bb81610695565b92915050565b6000602082840312156106d7576106d66105c2565b5b60006106e5848285016106ac565b91505092915050565b6106f7816105e7565b82525050565b600060208201905061071260008301846106ee565b92915050565b6000819050919050565b61072b81610718565b811461073657600080fd5b50565b60008135905061074881610722565b92915050565b600060208284031215610764576107636105c2565b5b600061077284828501610739565b91505092915050565b600081519050919050565b600082825260208201905092915050565b6000819050602082019050919050565b6107b0816105e7565b82525050565b60006107c283836107a7565b60208301905092915050565b6000602082019050919050565b60006107e68261077b565b6107f08185610786565b93506107fb83610797565b8060005b8381101561082c57815161081388826107b6565b975061081e836107ce565b9250506001810190506107ff565b5085935050505092915050565b6000602082019050818103600083015261085381846107db565b905092915050565b61086481610718565b82525050565b600060208201905061087f600083018461085b565b92915050565b6000819050919050565b61089881610885565b82525050565b60006020820190506108b3600083018461088f565b92915050565b600082825260208201905092915050565b7f43616e6e6f74207769746864726177206d6f7265207468616e20302e3120457460008201527f6865720000000000000000000000000000000000000000000000000000000000602082015250565b60006109266023836108b9565b9150610931826108ca565b604082019050919050565b6000602082019050818103600083015261095581610919565b9050919050565b7f4e487b7100000000000000000000000000000000000000000000000000000000600052604160045260246000fd5b7f4e487b7100000000000000000000000000000000000000000000000000000000600052603260045260246000fd5b7f4e487b7100000000000000000000000000000000000000000000000000000000600052601160045260246000fd5b60006109f482610718565b91507fffffffffffffffffffffffffffffffffffffffffffffffffffffffffffffffff8203610a2657610a256109ba565b5b60018201905091905056fea2646970667358221220df5fc99c197a74cdaf62e1343967019c427b27ba37f9b14037d7ac1fc0c13ad964736f6c634300080f0033",
  "immutableReferences": {},
  "source": "// SPDX-License-Identifier: MIT\npragma solidity >=0.4.22 <0.9.0;\nimport \"./Owned.sol\";\nimport \"./Logger.sol\";\nimport \"./IFaucet.sol\";\n\ncontract Faucet is Owned, Logger, IFaucet {\n    uint256 public numOfFunders;\n\n    mapping(address => bool) public funders;\n    mapping(uint256 => address) public lutFunders;\n\n    modifier limitWithdraw(uint256 withdrawAmount) {\n        require(\n            withdrawAmount <= 100000000000000000,\n            \"Cannot withdraw more than 0.1 Ether\"\n        );\n        _;\n    }\n\n    // called when you make a transaction that doesn't specify function name to call\n    receive() external payable {}\n\n    // override - indicates a function implemented from an abstract contract\n    // pure - indicates the function won't read/alter the storage state\n    function emitLog() public pure override returns (bytes32) {\n        return \"Hello World\";\n    }\n\n    // function transferOwnership(address newOwner) external onlyOwner {\n    //     owner = newOwner;\n    // }\n\n    // external functions can be called via contracts and other transactions\n    function addFunds() external payable override {\n        address funder = msg.sender;\n\n        if (!funders[funder]) {\n            uint256 index = numOfFunders++;\n            funders[funder] = true;\n            lutFunders[index] = funder;\n        }\n    }\n\n    function withdrawFunds(uint256 withdrawAmount)\n        external\n        override\n        limitWithdraw(withdrawAmount)\n    {\n        payable(msg.sender).transfer(withdrawAmount);\n    }\n\n    // private - accessible only within the contract\n    // internal - accessible only within the contract and derived contract\n\n    // view - it indicates the function will not alter the storage state. read-only calls, no gas fee\n    function getAllFunders() external view returns (address[] memory) {\n        address[] memory _funders = new address[](numOfFunders);\n\n        for (uint256 i = 0; i < numOfFunders; i++) {\n            _funders[i] = lutFunders[i];\n        }\n\n        return _funders;\n    }\n\n    function getFunderAtIndex(uint8 index) external view returns (address) {\n        return lutFunders[index];\n    }\n}\n",
  "sourcePath": "/Users/segunoyelade/Documents/web3/faucet/contracts/FaucetContract.sol",
  "compiler": {
    "name": "solc",
    "version": "0.8.15+commit.e14f2714.Emscripten.clang"
  },
  "schemaVersion": "3.4.8",
  "updatedAt": "2022-08-21T13:19:34.510Z",
  "networkType": "ethereum",
  "devdoc": {
    "kind": "dev",
    "methods": {},
    "version": 1
  },
  "userdoc": {
    "kind": "user",
    "methods": {},
    "version": 1
  }
}